S01200004D7950726F6A656374312E7372656344
S11300003DC0000056C0000054C0000052C00000B3
S113001050C000004EC000004CC000004AC00000A8
S113002048C0000046C0000044C0000042C00000B8
S113003040C000003EC000003CC000003AC00000C8
S113004038C0000036C0000034C0000032C00000D8
S11300504EC100002EC000002CC000002AC00000C9
S113006028C0000026C0000024C0000022C00000F8
S113007020C000001EC000001CC0000011241FBED0
S1130080CFEFD4E0DEBFCDBF12E0A0E0B1E0E0EE00
S1130090F8E002C005900D92AC31B107D9F722E027
S11300A0ACE1B2E001C01D92AA35B207E1F72CD051
S11300B015C4A6CF80E0ADEEB0E0982F9295907F66
S11300C09C93EEEEF0E01192E83FF105E1F78F5FCB
S11300D0863099F7089581E08093D8008EE080936C
S11300E0E2008CE08093E30087E38093E40081E006
S11300F00895F1DF882339F0DDDFE8EDF0E0808159
S11301008260808381E00895CF93DF93CDB7DEB71B
S1130110C058D1090FB6F894DEBF0FBECDBF80E83A
S113012095E22DD160E070E089EE91E0B4D160E019
S113013070E082E092E0AFD180E0DBDFEBEDF0E055
S11301408081806880837894ECE3F2E010821182ED
S1130150128213821482158216821782ACE1B2E0F5
S11301601896FC93EE9317971B961C921B9798E096
S113017016969C93169721E830E013963C932E93A1
S1130180129787E011968C93E4E4F2E043E452E0A2
S113019050874783138641E04287968333832283C3
S11301A099E09183E4E3F2E09FEF908395E59183F6
S11301B093E392839FE0938390EF948397E79583EF
S11301C09AEA96839CE99783A8E2B2E01896FC9396
S11301D0EE9317971B961C921B9716968C93169763
S11301E081E190E013969C938E93129782E011968E
S11301F08C938CE092E0C2D1CE01019696D1CE01CF
S11302000196BCD12FEF89E698E1215080409040BF
S1130210E1F700C000002FEF89E698E1215080400B
S11302209040E1F700C00000E4CFFC01EE57FF4F1F
S11302302081222311F0108216C0FC01E058FF4FE8
S113024020813196308123130EC030E02F5F3F4F61
S11302502F773078332334F42150310920683F6FED
S11302602F5F3F4F2083FC01E058FF4F208130E097
S1130270DC01A20FB31F6C93C90101968F779078AC
S1130280992324F4019780689F6F019680830895D1
S1130290FC01EE57FF4F2081211122C031972081AC
S11302A030E0FC01E20FF31F40812F5F3F4F2F77B7
S11302B03078332334F42150310920683F6F2F5FA5
S11302C03F4FFC01EF57FF4F2083DC01AE57BF4F78
S11302D0319781E09081921380E08C93842F08956C
S11302E080E008958E579F4FFC01808108951F92EE
S11302F00F920FB60F9211242F933F934F935F9356
S11303006F937F938F939F93AF93BF93EF93FF93D9
S11303108091C90080FF0AC0E9ECF0E080818E7F03
S113032080836091D20086E091E07FDF8091C900F4
S113033081FF14C0E9ECF0E080818D7F808389E83F
S113034091E0A6DF8093D20089E891E0CBDF882397
S113035029F0EAECF0E080818D7F8083FF91EF91BA
S1130360BF91AF919F918F917F916F915F914F91C9
S11303703F912F910F900FBE0F901F901895CF9320
S1130380DF93C8ECD0E020E828839C0140E050E0F3
S113039060E472E48FE090E040D0DA01C901019793
S11303A0A109B109892F9A2FAB2FBB27A7FDBA95B5
S11303B08093CE0021502093CD0080E98093CC001F
S11303C081E08093CA008FE088837894DF91CF9195
S11303D00895CF93C82FF8948091CA0081FD08C076
S11303E0EAECF0E0808182608083C093D20004C094
S11303F06C2F89E891E019DF78948C2FCC0F990B3E
S1130400CF910895F89486E091E042DF90E08D303A
S1130410910511F48AE090E00895052E97FB16F4F7
S113042000940FD057FD05D014D007FC02D046F439
S113043008C050954095309521953F4F4F4F5F4FE1
S1130440089590958095709561957F4F8F4F9F4F3C
S11304500895A1E21A2EAA1BBB1BFD010DC0AA1F01
S1130460BB1FEE1FFF1FA217B307E407F50720F019
S1130470A21BB30BE40BF50B661F771F881F991F94
S11304801A9469F760957095809590959B01AC01DD
S1130490BD01CF0108950F931F93CF93DF9300976E
S11304A031F46115710519F480E090E039C08B01D5
S11304B0EC016EE070E081E090E090D0FC01892BCB
S11304C099F380E883830115110571F0138702877E
S11304D081E883838091500290915102892B21F409
S11304E0F0935102E09350022097C9F0D187C0875E
S11304F08381826083838091520290915302892B7D
S113050071F4F0935302E09352028091540290915B
S11305105502892B21F4F0935502E0935402CF0144
S1130520DF91CF911F910F9108950F931F93CF9354
S1130530DF93E0915002F0915102238120FD03C02A
S113054080E090E016C0C92FD82F082F192F809172
S113055050029091510284D18F3F2FEF920781F383
S1130560F80181938F010A9791F7319710828D2FAB
S11305709C2FDF91CF911F910F9108950F931F939B
S1130580CF93DF93E0915202F0915302238121FF34
S11305901BC08C01D0E0C0E0F80181918F01609113
S11305A0520270915302DB011896ED91FC91199758
S11305B0882331F00995892B79F3DFEFCFEFECCF66
S11305C08AE00995892B19F08FEF9FEF02C08D2FD8
S11305D09C2FDF91CF911F910F9108950F931F933B
S11305E0CF93DF93869F8001879F100D969F100DF8
S11305F01124C8010DD0EC01009721F0A80160E09E
S113060070E027D1CE01DF91CF911F910F91089512
S11306100F931F93CF93DF938230910510F482E000
S113062090E0E0915802F091590220E030E0A0E01F
S1130630B0E0309719F1408151810281138148174C
S11306405907C8F08417950769F4109731F012968A
S11306500C93129713961C9327C00093580210937F
S1130660590222C02115310519F04217530718F415
S11306709A01BD01EF01DF01F801DBCF211531053E
S1130680F9F0281B390B2430310580F48A819B81D1
S11306906115710521F0FB019383828304C090935B
S11306A0590280935802FE01329644C0FE01E20FC3
S11306B0F31F8193919322503109398328833AC0DF
S11306C02091560230915702232B41F420910201CC
S11306D03091030130935702209356022091000178
S11306E0309101012115310541F42DB73EB74091F8
S11306F0040150910501241B350BE0915602F09141
S11307005702E217F307A0F42E1B3F0B28173907F3
S113071078F0AC014E5F5F4F2417350748F04E0F59
S11307205F1F50935702409356028193919302C0E6
S1130730E0E0F0E0CF01DF91CF911F910F91089598
S1130740CF93DF93009709F481C0FC0132971382A1
S11307501282A0915802B0915902109781F420811D
S11307603181820F931F209156023091570228172E
S1130770390751F5F0935702E093560267C0ED0133
S113078020E030E0CE17DF0740F44A815B819E0110
S113079041155105F1F0EA01F5CFD383C2834081BD
S11307A05181840F951FC817D90759F488819981FD
S11307B0840F951F0296918380838A819B81938302
S11307C082832115310529F4F0935902E0935802EC
S11307D03DC0E901FB83EA8349915991C40FD51FB8
S11307E0EC17FD0761F480819181840F951F0296B7
S11307F0E90199838883828193819B838A83E0E0E2
S1130800F0E012968D919C911397009719F0FD01D9
S1130810DC01F7CF8D919C9111979D012E5F3F4F85
S1130820820F931F209156023091570228173907DF
S113083069F4309729F4109259021092580202C0B8
S113084013821282B0935702A0935602DF91CF9184
S11308500895DC0101C06D9341505040E0F70895C4
S1130860CF93DF93EC012B8120FF33C026FF0AC016
S11308702F7B2B838E819F8101969F838E838A8118
S113088090E029C022FF0FC0E881F9818081082E01
S1130890000C990B009719F420622B831AC031962F
S11308A0F983E8830EC0EA85FB85099597FF09C0A3
S11308B02B81019611F080E201C080E1822B8B83B1
S11308C008C02E813F812F5F3F4F3F832E8399279E
S11308D002C08FEF9FEFDF91CF910895F894FFCF7F
S11308E000005A0220000000000000000000000088
S11308F000000000000000000000000000000000F4
S113090000000000000000000000000000000000E3
S113091000000000000000000000000000000000D3
S113092000000000000000000000000000000000C3
S113093000000000000000000000000000000000B3
S113094000000000000000000000000000000000A3
S11309500000000000000000000000000000000093
S11309600000000000000000010000000000000082
S11309700000000000000000000000000000000073
S11309800000000000000000000000000000000063
S11309900000000000000000000000000000000053
S11309A00000000000000000000000000000000043
S11309B00000000000000000000000000000000033
S11309C00000000000000000000000000000000023
S11309D00000000000000000000000000000000013
S11309E00000000000000000000000015479706560
S10F09F020536F6D657468696E673A00EF
S9030000FC
