S01200004D7950726F6A656374312E7372656344
S113000048C0000062C0000060C000005EC0000084
S11300105CC000005AC0000058C0000056C0000078
S113002054C0000052C0000050C000004EC0000088
S11300304CC000004AC0000048C0000046C0000098
S113004044C0000042C0000040C000003EC00000A8
S1130050D0C700003AC0000038C0000036C000001D
S113006034C0000032C0000030C000002EC00000C8
S11300702CC000002AC0000028C000002C01BE01D2
S113008038029C02D90220036B03F6038B04270178
S1130090810511241FBECFEFD4E0DEBFCDBF12E037
S11300A0A0E0B1E0EAE5FAE102C005900D92A035C6
S11300B0B107D9F722E0A0E5B2E001C01D92AA3A47
S11300C0B207E1F77ED60C942B0D9ACF80E0ADEE0B
S11300D0B0E0982F9295907F9C93EEEEF0E0119211
S11300E0E83FF105E1F78F5F863099F70895EDEE6B
S11300F0F0E0208110828091EF00807C69F081E043
S1130100ADEEB0E0EFEEF0E0982F9295907F9C93E7
S11301109081907C29F401C080E02093ED00089543
S11301208F5F863089F72093ED008FEF08958091DB
S1130130EF00807C61F08091EE00982F907E9032E9
S113014041F0903441F0903A41F08F7108958FEF6F
S1130150089580E2089580E4089580EA0895CF9395
S1130160DF93BC018091EF008F7099F090E0CAEFAB
S1130170D0E0AFEEB0E02881FB01E90FF11D208350
S11301809F5F2C91492F50E02F7030E042175307A6
S113019094F3DF91CF91089581E08093D8008EE0AD
S11301A08093E2008CE08093E30087E38093E40093
S11301B081E00895F1DF882339F088DFE8EDF0E08D
S11301C080818260808381E008950F931F93CF9391
S11301D0DF9300D000D0CDB7DEB7FC0181818C3035
S11301E099F48185803669F480818295807F80933B
S11301F0ED00AFEEB0E08C918F738C931092EE0013
S11302001082118680E036C58F0171DF8F3F09F4BB
S11302102CC590E6D80119969C9319978C938295D6
S1130220807F8093ED00EEEEF0E01192E83FF1055F
S1130230E1F7D8011196EC918E2F90E0FC013197F3
S1130240EB30F10508F00DC5E25CFF4F84C7F801FF
S113025086818111F9C30AC4D8011B968C911B971E
S11302608823E9F115968C911597982F990F990F7A
S1130270990F14968C911497829586958770890F9F
S11302808093F30014968C911497982F990F990FDB
S1130290990F13968C911397829586958770890F81
S11302A08093F20013968C911397982F990F990FBE
S11302B0990F12968C911297829586958770890F63
S11302C08093F10012968C91880F880F880F809389
S11302D0F000EFEEF0E080818061808319C0F801C6
S11302E093818281869586958695F0E29F9F800D05
S11302F011248093F300D80112968C918295880F73
S1130300807E8093F200EFEEF0E080818F7E808328
S1130310F8018681882391F080E02AEF30E0D8014B
S11303201796ED91FC911897E80FF11D9081F90152
S113033090838F5F16969C91891788F3D8011A963B
S11303408C91882331F0E0EFF0E080818460808339
S113035005C0E0EFF0E080818B7F8083EFEEF0E07A
S11303609081D80116968C91892B808380818F731C
S1130370808380818064808380E07CC4F8018385ED
S1130380882381F18581982F990F990F990F848182
S1130390829586958770890F8093F3008481982FC6
S11303A0990F990F990F8381829586958770890F8C
S11303B08093F2008381982F990F990F990F82816E
S11303C0829586958770890F8093F1008281880FCA
S11303D0880F880F8093F000EFEEF0E08081806159
S11303E0808317C093818281869586958695B0E235
S11303F09B9F800D11248093F300F80182818295E4
S1130400880F807E8093F200EFEEF0E080818F7E93
S11304108083D80116968C91882391F080E02AEF8E
S113042030E0D8011796ED91FC911897E80FF11D73
S11304309081F90190838F5F16969C91891788F3B8
S1130440D8011A961C921A97E0EFF0E080818B7F16
S11304508083EFEEF0E0908116968C91892B808357
S113046080818F73808380818064808380E002C474
S1130470F8018385882381F18581982F990F990F3D
S1130480990F8481829586958770890F8093F300F4
S11304908481982F990F990F990F8381829586955E
S11304A08770890F8093F2008381982F990F990F99
S11304B0990F8281829586958770890F8093F100C8
S11304C08281880F880F880F8093F000EFEEF0E0B0
S11304D080818061808317C093818281869586950F
S11304E08695B0E29B9F800D11248093F300F80160
S11304F082818295880F807E8093F200EFEEF0E097
S113050080818F7E808381E0D8011A968C931A971C
S1130510E0EFF0E0808184608083EFEEF0E0908192
S113052016968C91892B808380818F738083808140
S11305308064808380E09EC319821A821B821C829D
S11305401092F7008B81982F990F990F990F8A8138
S1130550829586958770890F8093F6008A81982FFB
S1130560990F990F990F8981829586958770890FC4
S11305708093F5008981880F880F880F24EF30E07D
S1130580F9018083EFEEF0E09081D80116968C910A
S1130590892B8083D9018C918B7F8C938C918E7F56
S11305A08C9380818F73808380818068808380E0D6
S11305B061C319821A821B821C821092F7008B81FC
S11305C0982F990F990F990F8A8182958695877034
S11305D0890F8093F6008A81982F990F990F990FAC
S11305E08981829586958770890F8093F50089812A
S11305F0880F880F880F44EF50E0FA018083EFEEF4
S1130600F0E09081D80116968C911697892B8083FF
S11306101A961C92DA018C9184608C9320EF30E05E
S1130620D9018C918B7F8C93DA018C918E7F8C9382
S113063080818F73808380818068808380E01AC387
S113064019821A821B821C821092F7008B81982FC8
S1130650990F990F990F8A81829586958770890FD2
S11306608093F6008A81982F990F990F990F8981A9
S1130670829586958770890F8093F5008981880F0C
S1130680880F880F44EF50E0FA018083EFEEF0E02A
S11306909081D80116968C911697892B808381E0DE
S11306A01A968C93DA018C9184608C9320EF30E05D
S11306B0D9018C9184608C9380818F7D8083DA0151
S11306C08C918E7F8C9380818F73808380818068EE
S11306D0808380E0CFC2F8018385882381F18581FE
S11306E0982F990F990F990F848182958695877019
S11306F0890F8093F3008481982F990F990F990F94
S11307008381829586958770890F8093F200838117
S1130710982F990F990F990F8281829586958770EA
S1130720890F8093F1008281880F880F880F80934E
S1130730F000EFEEF0E080818061808317C0938148
S11307408281869586958695B0E29B9F800D1124C3
S11307508093F300F80182818295880F807E8093D4
S1130760F200EFEEF0E080818F7E80838FEF9FEFC9
S1130770DC0189839A83AB83BC838093F7008B81EC
S1130780982F990F990F990F8A8182958695877072
S1130790890F8093F6008A81982F990F990F990FEA
S11307A08981829586958770890F8093F500898168
S11307B0880F880F880F24EF30E0D9018C93EFEE77
S11307C0F0E09081D80116968C91892B8083D90111
S11307D08C918B7F8C938C9181608C9380818F73AF
S11307E0808380818068808380E044C2F8018385AF
S11307F0882381F18581982F990F990F990F84810E
S1130800829586958770890F8093F3008481982F51
S1130810990F990F990F8381829586958770890F17
S11308208093F2008381982F990F990F990F8281F9
S1130830829586958770890F8093F1008281880F55
S1130840880F880F8093F000EFEEF0E080818061E4
S1130850808317C093818281869586958695B0E2C0
S11308609B9F800D11248093F300F801828182956F
S1130870880F807E8093F200EFEEF0E080818F7E1F
S113088080838FEF9FEFDC0189839A83AB83BC83E2
S11308908093F7008B81982F990F990F990F8A8174
S11308A0829586958770890F8093F6008A81982FA8
S11308B0990F990F990F8981829586958770890F71
S11308C08093F5008981880F880F880F44EF50E0EA
S11308D0DA018C93EFEEF0E09081D80116968C91BA
S11308E01697892B80831A961C92DA018C91846066
S11308F08C9320EF30E0D9018C918B7F8C93DA01BB
S11309008C9181608C9380818F73808380818068D7
S1130910808380E0AFC1F8018385882381F18581DC
S1130920982F990F990F990F8481829586958770D6
S1130930890F8093F3008481982F990F990F990F51
S11309408381829586958770890F8093F2008381D5
S1130950982F990F990F990F8281829586958770A8
S1130960890F8093F1008281880F880F880F80930C
S1130970F000EFEEF0E080818061808317C0938106
S11309808281869586958695B0E29B9F800D112481
S11309908093F300F80182818295880F807E809392
S11309A0F200EFEEF0E080818F7E80838FEF9FEF87
S11309B0DC0189839A83AB83BC838093F7008B81AA
S11309C0982F990F990F990F8A8182958695877030
S11309D0890F8093F6008A81982F990F990F990FA8
S11309E08981829586958770890F8093F500898126
S11309F0880F880F880F44EF50E0DA018C93EFEEF4
S1130A00F0E09081D80116968C911697892B8083FB
S1130A1081E01A968C93DA018C9184608C9320EF98
S1130A2030E0D9018C9184608C9380818F7D8083A8
S1130A30DA018C9181608C9380818F7380838081B3
S1130A408068808380E016C180E02AEF30E0D8011E
S1130A501796ED91FC911897E80FF11D9081F9011B
S1130A6090838F5F16969C91891788F319821A8256
S1130A701B821C821092F7008B81982F990F990F7B
S1130A80990F8A81829586958770890F8093F600E5
S1130A908A81982F990F990F990F8981829586954C
S1130AA08770890F8093F5008981880F880F880FDC
S1130AB044EF50E0DA018C93EFEEF0E09081D8013E
S1130AC016968C911697892B808381E01A968C93C5
S1130AD0DA018C9184608C9320EF30E0D9018C9101
S1130AE084608C93808180628083DA018C918E7F14
S1130AF08C9380818F73808380818068808380E081
S1130B00B9C0F8018385882381F18581982F990FD5
S1130B10990F990F8481829586958770890F8093A8
S1130B20F3008481982F990F990F990F83818295EF
S1130B3086958770890F8093F2008381982F990F8F
S1130B40990F990F8281829586958770890F80937A
S1130B50F1008281880F880F880F8093F000EFEEF8
S1130B60F0E080818061808317C0938182818695C3
S1130B7086958695B0E29B9F800D11248093F300A7
S1130B80F80182818295880F807E8093F200EFEED7
S1130B90F0E080818F7E8083D80116968C91882323
S1130BA091F080E02AEF30E0D8011796ED91FC91A6
S1130BB01897E80FF11D9081F90190838F5F1696C5
S1130BC09C91891788F38FEF9FEFDC0189839A83C7
S1130BD0AB83BC838093F7008B81982F990F990F77
S1130BE0990F8A81829586958770890F8093F60084
S1130BF08A81982F990F990F990F898182958695EB
S1130C008770890F8093F5008981880F880F880F7A
S1130C1044EF50E0DA018C93EFEEF0E09081D801DC
S1130C2016968C911697892B808381E01A968C9363
S1130C30DA018C9184608C9320EF30E0D9018C919F
S1130C4084608C93808180628083DA018C918160DE
S1130C508C9380818F73808380818068808380E01F
S1130C6009C0F801118680E005C08FE1D80119960A
S1130C708C938FEF0F900F900F900F90DF91CF9187
S1130C801F910F9108951F93CF93DF93FC019185DA
S1130C90992309F48BC09F3109F48AC09F3F09F45A
S1130CA089C0EF0180818295807F8093ED003FDAD7
S1130CB0182F803259F020F4882309F47DC06CC0C9
S1130CC0803409F45EC0803A09F066C08091EF0078
S1130CD08F708E838F81988542DA9091F00081E045
S1130CE092FF80E08A878091EF0084FF2DC081E02D
S1130CF08B87E3EFF0E080818695869586958D83DA
S1130D00A2EFB0E08C91908186958695869520E23D
S1130D10929F800D11248C83E1EFF0E080819C91FF
S1130D2086958695869520E2929F800D11248B836B
S1130D308091F000908186958695869520E2929F19
S1130D40800D11248A8313C01B86E3EFF0E08081B9
S1130D508295869587708B839091F200808192951D
S1130D6096959770880F880F880F890F8A83198743
S1130D70EFEEF0E080818F7380831092EE0080E0CC
S1130D801CC080E48987EFEEF0E080818F7380835C
S1130D901092EE0080E011C01987EFEEF0E0808140
S1130DA08F7380831092EE0082E007C082E005C05A
S1130DB082E003C082E001C081E0DF91CF911F9106
S1130DC0089580E895E25DD164E878E08BE698E0E8
S1130DD0EAD180E0EFD9EBEDF0E080818068808398
S1130DE07894E0E6F2E01082118212821382148277
S1130DF0158216821782ACE7B2E088E592E0189675
S1130E009C938E9317971B961C921B9798E01696AB
S1130E109C93169720E830E013963C932E931297F8
S1130E2087E011968C93A8E8B2E01896FC93EE93B1
S1130E3017971B961C921B9716969C9316971396BE
S1130E403C932E93129711968C93C12CD12C0F2E78
S1130E50F4E9EF2EF2E0FF2EF02D0F2EF8E6AF2E80
S1130E60F2E0BF2EF02D6894662467F8712C0F2EE3
S1130E70FCE04F2EF2E05F2EF02D0F2EFAE12F2E24
S1130E80F2E03F2EF02D08E612E00F2EFBE48F2E49
S1130E90F2E09F2EF02DF701B086A782138628E09A
S1130EA026837382628282E081835F924F92C5D1EE
S1130EB00F900F9088E892E088D98111FBCF88E8E1
S1130EC092E0E1DE8130D9F39FEFC91AD90A3F924B
S1130ED02F92B3D1DF92CF92E5E3F2E0FF93EF9349
S1130EE0ACD189E392E09F938F93A7D1C0E6D2E07F
S1130EF08DB79EB708960FB6F8949EBF0FBE8DBFF0
S1130F0089911F928F939F928F9297D10F900F90F8
S1130F100F900F90C017D10799F79FEFE3E2F4EF1A
S1130F209150E040F040E1F700C00000B4CFFC0174
S1130F30EE57FF4F2081222311F0108216C0FC01CE
S1130F40E058FF4F20813196308123130EC030E0EA
S1130F502F5F3F4F2F773078332334F421503109FA
S1130F6020683F6F2F5F3F4F2083FC01E058FF4F05
S1130F70208130E0DC01A20FB31F6C93C9010196FC
S1130F808F779078992324F4019780689F6F019656
S1130F9080830895FC01EE57FF4F2081211122C068
S1130FA03197208130E0FC01E20FF31F40812F5F75
S1130FB03F4F2F773078332334F4215031092068A0
S1130FC03F6F2F5F3F4FFC01EF57FF4F2083DC0142
S1130FD0AE57BF4F319781E09081921380E08C939C
S1130FE0842F089580E008958E579F4FFC018081DF
S1130FF008951F920F920FB60F9211242F933F93CF
S11310004F935F936F937F938F939F93AF93BF930C
S1131010EF93FF938091C90080FF0AC0E9ECF0E0F0
S113102080818E7F80836091D20086E091E07FDFB3
S11310308091C90081FF14C0E9ECF0E080818D7FCC
S1131040808389E891E0A6DF8093D20089E891E06B
S1131050CBDF882329F0EAECF0E080818D7F808368
S1131060FF91EF91BF91AF919F918F917F916F917C
S11310705F914F913F912F910F900FBE0F901F9052
S11310801895CF93DF93C8ECD0E020E828839C0127
S113109040E050E060E472E48FE090E040D0DA0198
S11310A0C9010197A109B109892F9A2FAB2FBB2739
S11310B0A7FDBA958093CE0021502093CD0080E9FE
S11310C08093CC0081E08093CA008FE08883789479
S11310D0DF91CF910895CF93C82FF8948091CA00DF
S11310E081FD08C0EAECF0E0808182608083C093D7
S11310F0D20004C06C2F89E891E019DF78948C2F1A
S1131100CC0F990BCF910895F89486E091E042DFDB
S113111090E08D30910511F48AE090E00895052E59
S113112097FB16F400940FD057FD05D01AD007FC96
S113113002D046F408C050954095309521953F4F14
S11311404F4F5F4F089590958095709561957F4FAF
S11311508F4F9F4F0895EE0FFF1F0590F491E02DE0
S11311600994A1E21A2EAA1BBB1BFD010DC0AA1FE4
S1131170BB1FEE1FFF1FA217B307E407F50720F0FC
S1131180A21BB30BE40BF50B661F771F881F991F77
S11311901A9469F760957095809590959B01AC01C0
S11311A0BD01CF0108950F931F93CF93DF93009751
S11311B031F46115710519F480E090E039C08B01B8
S11311C0EC016EE070E081E090E01CD2FC01892B20
S11311D099F380E883830115110571F01387028761
S11311E081E883838091A0029091A102892B21F44C
S11311F0F093A102E093A0022097C9F0D187C087A1
S11312008381826083838091A2029091A302892BBF
S113121071F4F093A302E093A2028091A40290914E
S1131220A502892B21F4F093A502E093A402CF0137
S1131230DF91CF911F910F910895A0E0B0E0E2E219
S1131240F9E0E2C3AE014B5F5F4FFA016191719126
S1131250AF018091A2029091A30202D0E2E0F0C318
S1131260ABE0B0E0E5E3F9E0BFC36C017B018A01C8
S1131270FC0117821682838181FFBFC1CE010196D2
S11312803C01F6019381F70193FD859193FF8191D0
S11312907F01882309F4ADC1853239F493FD85912A
S11312A093FF81917F01853221F4B60190E002D34E
S11312B0E8CF912C212C312CFFE1F315D8F08B329F
S11312C079F038F4803279F08332A1F4232D20614F
S11312D01DC08D3261F0803369F4232D216016C066
S11312E0832D8260382EE32DE4603E2E2AC0F32D38
S11312F0F8601DC037FC2DC020ED280F2A3040F0C7
S11313008E32B9F436FC75C1232D2064322E19C0F7
S113131036FE06C08AE0989E200D1124922E11C03C
S1131320EAE02E9E200D1124222EF32DF0623F2E92
S113133008C08C3621F4832D8068382E02C088368C
S113134041F4F70193FD859193FF81917F01811110
S1131350B3CF982F9F7D9554933028F40C5F1F4F83
S11313609FE399830DC0833631F0833771F0833561
S113137009F055C020C0F801808189830E5F1F4F9A
S113138088248394912C530112C02801F2E04F0E5B
S1131390511CF801A080B18036FE03C0692D70E0B5
S11313A002C06FEF7FEFC5017AD24C018201F32DA9
S11313B0FF773F2E15C0280122E0420E511CF80190
S11313C0A080B18036FE03C0692D70E002C06FEFCB
S11313D07FEFC50152D24C01F32DF0683F2E8201FC
S11313E033FC19C0822D90E088169906A0F4B6014A
S11313F080E290E05FD22A94F5CFF50137FC859125
S113140037FE81915F01B60190E054D221102A94F5
S113141021E0821A91088114910479F7E1C084369D
S113142011F0893639F5F80137FE07C06081718102
S1131430828193810C5F1F4F08C060817181072EE8
S1131440000C880B990B0E5F1F4FF32DFF763F2E78
S113145097FF09C090958095709561957F4F8F4F48
S11314609F4FF0683F2E2AE030E0A3015FD2882E20
S1131470861844C0853731F4232D2F7EB22E2AE0FE
S113148030E025C0932D997FB92E8F36C1F018F422
S1131490883579F0AEC0803719F0883721F0A9C0BB
S11314A0E92FE061BE2EB4FE0DC0FB2DF460BF2E0B
S11314B009C034FE0AC0292F2660B22E06C028E0D7
S11314C030E005C020E130E002C020E132E0F80164
S11314D0B7FE07C060817181828193810C5F1F4FC9
S11314E006C06081718180E090E00E5F1F4FA30110
S11314F01DD2882E8618FB2DFF773F2E36FE0DC099
S1131500232D2E7FA22E891458F434FE0BC032FCF6
S113151009C0832D8E7EA82E05C0B82CA32C03C031
S1131520B82C01C0B92CA4FE0FC0FE01E80DF11DBA
S11315308081803321F49A2D997EA92E09C0A2FEC0
S113154006C0B394B39404C08A2D867809F0B3948A
S1131550A3FC10C0A0FE06C0B21480F4280C922C88
S11315609B180DC0B21458F4B60180E290E0A2D1E9
S1131570B394F8CFB21418F42B1802C0982C212C71
S1131580A4FE0FC0B60180E390E094D1A2FE16C081
S1131590A1FC03C088E790E002C088E590E0B601B2
S11315A00CC08A2D867851F0A1FE02C08BE201C0E6
S11315B080E2A7FC8DE2B60190E07CD1891430F47E
S11315C0B60180E390E076D19A94F8CF8A94F3013F
S11315D0E80DF11D8081B60190E06CD18110F6CF49
S11315E0222009F44ECEB60180E290E063D12A9421
S11315F0F7CFF6018681978102C08FEF9FEF2B967C
S1131600E2E10EC20F931F93CF93DF93869F800175
S1131610879F100D969F100D1124C8010DD0EC0169
S1131620009721F0A80160E070E032D1CE01DF9193
S1131630CF911F910F9108950F931F93CF93DF9331
S11316408230910510F482E090E0E091A802F091DC
S1131650A90220E030E0A0E0B0E0309719F1408129
S113166051810281138148175907C8F084179507DF
S113167069F4109731F012960C93129713961C93F9
S113168027C00093A8021093A90222C02115310596
S113169019F04217530718F49A01BD01EF01DF0155
S11316A0F801DBCF21153105F9F0281B390B243063
S11316B0310580F48A819B816115710521F0FB015C
S11316C09383828304C09093A9028093A802FE01AD
S11316D0329644C0FE01E20FF31F8193919322508E
S11316E03109398328833AC02091A6023091A70298
S11316F0232B41F420910201309103013093A7027E
S11317002093A60220910001309101012115310599
S113171041F42DB73EB74091040150910501241BBB
S1131720350BE091A602F091A702E217F307A0F4AB
S11317302E1B3F0B2817390778F0AC014E5F5F4F23
S11317402417350748F04E0F5F1F5093A7024093AC
S1131750A6028193919302C0E0E0F0E0CF01DF9113
S1131760CF911F910F910895CF93DF93009709F4C0
S113177081C0FC01329713821282A091A802B09119
S1131780A902109781F420813181820F931F209147
S1131790A6023091A7022817390751F5F093A70242
S11317A0E093A60267C0ED0120E030E0CE17DF072A
S11317B040F44A815B819E0141155105F1F0EA0133
S11317C0F5CFD383C28340815181840F951FC817FD
S11317D0D90759F488819981840F951F02969183C2
S11317E080838A819B81938382832115310529F427
S11317F0F093A902E093A8023DC0E901FB83EA83C8
S113180049915991C40FD51FEC17FD0761F48081EC
S11318109181840F951F0296E901998388838281BF
S113182093819B838A83E0E0F0E012968D919C91F2
S11318301397009719F0FD01DC01F7CF8D919C916E
S113184011979D012E5F3F4F820F931F2091A60297
S11318503091A7022817390769F4309729F41092B8
S1131860A9021092A80202C013821282B093A702A6
S1131870A093A602DF91CF910895FC0105906150D9
S113188070400110D8F7809590958E0F9F1F089592
S1131890DC0101C06D9341505040E0F70895FC0114
S11318A06150704001900110D8F7809590958E0F8B
S11318B09F1F08950F931F93CF93DF93FB01238101
S11318C021FD03C08FEF9FEF2CC022FF16C046817D
S11318D05781248135814217530744F4A081B18193
S11318E09D012F5F3F4F318320838C932681378165
S11318F02F5F3F4F3783268314C08B01EC01FB011C
S11319000084F185E02D0995892BE1F6D80116961E
S11319108D919C911797019617969C938E93169789
S1131920CE01DF91CF911F910F910895FA01AA275B
S1131930283051F1203181F1E8946F936E7F6E5F0E
S11319407F4F8F4F9F4FAF4FB1E03ED0B4E03CD0BC
S1131950670F781F891F9A1FA11D680F791F8A1F9F
S1131960911DA11D6A0F711D811D911DA11D20D006
S113197009F468943F912AE0269F11243019305DC0
S11319803193DEF6CF010895462F4770405D4193B1
S1131990B3E00FD0C9F7F6CF462F4F70405D4A33FE
S11319A018F0495D31FD4052419302D0A9F7EACFC6
S11319B0B4E0A6959795879577956795BA95C9F7F5
S11319C000976105710508959B01AC010A2E0694E8
S11319D05795479537952795BA95C9F7620F731FA1
S11319E0841F951FA01D08952F923F924F925F92DE
S11319F06F927F928F929F92AF92BF92CF92DF921B
S1131A00EF92FF920F931F93CF93DF93CDB7DEB77F
S1131A10CA1BDB0B0FB6F894DEBF0FBECDBF099413
S1131A202A88398848885F846E847D848C849B846A
S1131A30AA84B984C884DF80EE80FD800C811B8178
S1131A40AA81B981CE0FD11D0FB6F894DEBF0FBEA7
S10D1A50CDBFED010895F894FFCF17
S1131A5A0000AA02200000000000000000000000AC
S1131A6A0000000000000000000000000000000068
S1131A7A0000000000000000000000000000000058
S1131A8A0000000000000000000000000000000048
S1131A9A0000000000000000000000000000000038
S1131AAA0000000000000000000000000000000028
S1131ABA0000000000000000000000000000000018
S1131ACA0000000000000000000000000000000008
S1131ADA00000000000000000100000000000000F7
S1131AEA00000000000000000000000000000000E8
S1131AFA00000000000000000000000000000000D8
S1131B0A00000000000000000000000000000000C7
S1131B1A00000000000000000000000000000000B7
S1131B2A00000000000000000000000000000000A7
S1131B3A0000000000000000000000000000000097
S1131B4A0000000000000000000000000000000087
S1131B5A0000000000000000000000010A20576194
S1131B6A6974696E672E2E2E2000534F4D455448D2
S1131B7A494E472043414D4520494E2E205061632A
S1131B8A6B6574200025640A000A43686172732035
S1131B9A72656365697665643A20002563200000EE
S9030000FC
