:100000003DC0000056C0000054C0000052C00000B7
:1000100050C000004EC000004CC000004AC00000AC
:1000200048C0000046C0000044C0000042C00000BC
:1000300040C000003EC000003CC000003AC00000CC
:1000400038C0000036C0000034C0000032C00000DC
:100050007CC100002EC000002CC000002AC000009F
:1000600028C0000026C0000024C0000022C00000FC
:1000700020C000001EC000001CC0000011241FBED4
:10008000CFEFD4E0DEBFCDBF12E0A0E0B1E0E4E905
:10009000F9E002C005900D92AC30B107D9F722E02B
:1000A000ACE0B2E001C01D92AA34B207E1F72CD057
:1000B0006FC4A6CF80E0ADEEB0E0982F9295907F10
:1000C0009C93EEEEF0E01192E83FF105E1F78F5FCF
:1000D000863099F7089581E08093D8008EE0809370
:1000E000E2008CE08093E30087E38093E40081E00A
:1000F0000895F1DF882339F0DDDFE8EDF0E080815D
:100100008260808381E00895CF93DF93CDB7DEB71F
:1001100028970FB6F894DEBF0FBECDBF80E895E2FA
:1001200057D160E070E082E192E0D8D160E070E009
:100130008BE292E0D3D180E0DCDFEBEDF0E0808178
:10014000806880837894ECE2F2E01082118212825F
:1001500013821482158216821782ACE0B2E01896E0
:10016000FC93EE9317971B961C921B9728E016960C
:100170002C93169781E890E013969C938E93129798
:1001800037E011963C93E4E3F2E043E352E050871A
:100190004783138631E0328726839383828389E005
:1001A000818304E212E022242A940F2EF5E53F2EEB
:1001B000F02D0F2EF3E34F2EF02D0F2EFFE05F2ECC
:1001C000F02D0F2EF8E1EF2EF2E0FF2EF02D602E35
:1001D000712E0F2EF1E18F2E912CF02D0F2EF0E4C9
:1001E000AF2EF2E0BF2EF02DCE0101966C01F8018A
:1001F000208231824282538220EF248387E78583E5
:100200009AEA96838CE98783F70167827086138662
:1002100087E086839382828282E08183F501408138
:10022000518168E070E0C601A3D1F6010190002081
:10023000E9F7CF0101978C199D09C3D1FFEF29E69A
:1002400088E1F15020408040E1F700C000009FEFBE
:10025000E9E6F8E19150E040F040E1F700C000002D
:100260002FEF89E698E1215080409040E1F700C0EF
:100270000000EFEFF9E628E1E150F0402040E1F71F
:1002800000C00000B4CFFC01EE57FF4F20812223B5
:1002900011F0108216C0FC01E058FF4F208131960A
:1002A000308123130EC030E02F5F3F4F2F7730781F
:1002B000332334F42150310920683F6F2F5F3F4FC3
:1002C0002083FC01E058FF4F208130E0DC01A20FC9
:1002D000B31F6C93C90101968F779078992324F40A
:1002E000019780689F6F019680830895FC01EE5707
:1002F000FF4F2081211122C03197208130E0FC0185
:10030000E20FF31F40812F5F3F4F2F773078332369
:1003100034F42150310920683F6F2F5F3F4FFC01BB
:10032000EF57FF4F2083DC01AE57BF4F319781E07D
:100330009081921380E08C93842F089580E008953B
:100340008E579F4FFC01808108951F920F920FB628
:100350000F9211242F933F934F935F936F937F934B
:100360008F939F93AF93BF93EF93FF938091C900B7
:1003700080FF0AC0E9ECF0E080818E7F808360918D
:10038000D20089E891E07FDF8091C90081FF0FC032
:1003900089E891E0ABDF8093D20089E891E0D0DF7B
:1003A000882329F0EAECF0E080818D7F8083FF9143
:1003B000EF91BF91AF919F918F917F916F915F91DD
:1003C0004F913F912F910F900FBE0F901F90189556
:1003D000CF93DF93C8ECD0E020E828839C0140E075
:1003E00050E060E472E48FE090E03AD0DA01C901B5
:1003F0000197A109B109892F9A2FAB2FBB27A7FD20
:10040000BA958093CE0021502093CD0080E980934F
:10041000CC0081E08093CA008FE088837894DF91DC
:10042000CF910895CF93C82FF8948091CA0081FD91
:1004300008C0EAECF0E0808182608083C093D20043
:1004400004C06C2F89E891E01EDF78948C2FCC0FCC
:10045000990BCF910895F89486E091E047CF0895E5
:10046000052E97FB16F400940FD057FD05D014D03D
:1004700007FC02D046F408C0509540953095219570
:100480003F4F4F4F5F4F08959095809570956195C0
:100490007F4F8F4F9F4F0895A1E21A2EAA1BBB1BBF
:1004A000FD010DC0AA1FBB1FEE1FFF1FA217B30740
:1004B000E407F50720F0A21BB30BE40BF50B661F56
:1004C000771F881F991F1A9469F76095709580951A
:1004D00090959B01AC01BD01CF0108950F931F932F
:1004E000CF93DF93009731F46115710519F480E023
:1004F00090E039C08B01EC016EE070E081E090E0AB
:1005000090D0FC01892B99F380E8838301151105B4
:1005100071F01387028781E8838380914002909174
:100520004102892B21F4F0934102E093400220978D
:10053000C9F0D187C0878381826083838091420222
:1005400090914302892B71F4F0934302E0934202AD
:100550008091440290914502892B21F4F093450249
:10056000E0934402CF01DF91CF911F910F91089545
:10057000A0E0B0E0EDEBF2E0DEC1FA01238120FD66
:1005800003C080E090E019C016161706D4F77A0170
:100590008C01EB016C01C130D10561F0C70183D141
:1005A0008F3FFFEF9F0769F3F60181936F0121975A
:1005B0000A9789F7F6011082C801CDB7DEB7E8E0E7
:1005C000D6C10F931F93CF93DF93E0914202F09136
:1005D0004302238121FF1BC08C01D0E0C0E0F80161
:1005E00081918F016091420270914302DB01189664
:1005F000ED91FC911997882331F00995892B79F3B6
:10060000DFEFCFEFECCF8AE00995892B19F08FEF60
:100610009FEF02C08D2F9C2FDF91CF911F910F91E3
:1006200008950F931F93CF93DF93869F8001879F39
:10063000100D969F100D1124C8010DD0EC010097EC
:1006400021F0A80160E070E027D1CE01DF91CF91C9
:100650001F910F9108950F931F93CF93DF938230D3
:10066000910510F482E090E0E0914802F091490297
:1006700020E030E0A0E0B0E0309719F140815181F6
:100680000281138148175907C8F08417950769F448
:10069000109731F012960C93129713961C9327C063
:1006A000009348021093490222C02115310519F028
:1006B0004217530718F49A01BD01EF01DF01F80159
:1006C000DBCF21153105F9F0281B390B243031051A
:1006D00080F48A819B816115710521F0FB01938370
:1006E000828304C09093490280934802FE013296AF
:1006F00044C0FE01E20FF31F819391932250310910
:10070000398328833AC02091460230914702232B37
:1007100041F420910201309103013093470220936C
:10072000460220910001309101012115310541F46B
:100730002DB73EB74091040150910501241B350BA4
:10074000E0914602F0914702E217F307A0F42E1B56
:100750003F0B2817390778F0AC014E5F5F4F241725
:10076000350748F04E0F5F1F5093470240934602F3
:100770008193919302C0E0E0F0E0CF01DF91CF914F
:100780001F910F910895CF93DF93009709F481C0D3
:10079000FC01329713821282A0914802B091490263
:1007A000109781F420813181820F931F209146029E
:1007B000309147022817390751F5F0934702E0932B
:1007C000460267C0ED0120E030E0CE17DF0740F4BD
:1007D0004A815B819E0141155105F1F0EA01F5CF97
:1007E000D383C28340815181840F951FC817D907D5
:1007F00059F488819981840F951F02969183808393
:100800008A819B81938382832115310529F4F0939A
:100810004902E09348023DC0E901FB83EA83499124
:100820005991C40FD51FEC17FD0761F480819181A8
:10083000840F951F0296E9019983888382819381B1
:100840009B838A83E0E0F0E012968D919C91139750
:10085000009719F0FD01DC01F7CF8D919C91119764
:100860009D012E5F3F4F820F931F209146023091D2
:1008700047022817390769F4309729F41092490282
:100880001092480202C013821282B0934702A093D2
:100890004602DF91CF910895DC0101C06D93415074
:1008A0005040E0F70895CF93DF93EC012B8120FFB8
:1008B00033C026FF0AC02F7B2B838E819F81019638
:1008C0009F838E838A8190E029C022FF0FC0E88138
:1008D000F9818081082E000C990B009719F4206291
:1008E0002B831AC03196F983E8830EC0EA85FB8515
:1008F000099597FF09C02B81019611F080E201C094
:1009000080E1822B8B8308C02E813F812F5F3F4F78
:100910003F832E83992702C08FEF9FEFDF91CF9106
:1009200008952F923F924F925F926F927F928F9293
:100930009F92AF92BF92CF92DF92EF92FF920F936E
:100940001F93CF93DF93CDB7DEB7CA1BDB0B0FB678
:10095000F894DEBF0FBECDBF09942A883988488835
:100960005F846E847D848C849B84AA84B984C884CB
:10097000DF80EE80FD800C811B81AA81B981CE0FC2
:10098000D11D0FB6F894DEBF0FBECDBFED010895A7
:04099000F894FFCF09
:1009940000004A02200000000000000000000000E7
:1009A4000000000000000000000000000000000043
:1009B4000000000000000000000000000000000033
:1009C4000000000000000000000000000000000023
:1009D4000000000000000000000000000000000013
:1009E4000000000000000000000000000000000003
:1009F40000000000000000000000000000000000F3
:100A040000000000000000000000000000000000E2
:100A140000000000000000000100000000000000D1
:100A240000000000000000000000000000000000C2
:100A340000000000000000000000000000000000B2
:100A440000000000000000000000000000000000A2
:100A54000000000000000000000000000000000092
:100A64000000000000000000000000000000000082
:100A74000000000000000000000000000000000072
:100A84000000000000000000000000000000000062
:0C0A940000000000000000000000000155
:00000001FF
